{
  "_format": "hh-sol-artifact-1",
  "contractName": "CustomizableEscrow",
  "sourceName": "contracts/CustomizableEscrow.sol",
  "abi": [
    {
      "inputs": [
        {
          "internalType": "address[]",
          "name": "initialArbiters",
          "type": "address[]"
        },
        {
          "internalType": "address[]",
          "name": "initialManagers",
          "type": "address[]"
        },
        {
          "internalType": "address",
          "name": "_beneficiary",
          "type": "address"
        }
      ],
      "stateMutability": "payable",
      "type": "constructor"
    },
    {
      "anonymous": false,
      "inputs": [
        {
          "indexed": true,
          "internalType": "address",
          "name": "arbiterAdded",
          "type": "address"
        },
        {
          "indexed": true,
          "internalType": "address",
          "name": "addressThatAddedArbiter",
          "type": "address"
        }
      ],
      "name": "AddedArbiter",
      "type": "event"
    },
    {
      "anonymous": false,
      "inputs": [
        {
          "indexed": true,
          "internalType": "address",
          "name": "managerAdded",
          "type": "address"
        }
      ],
      "name": "AddedManager",
      "type": "event"
    },
    {
      "anonymous": false,
      "inputs": [
        {
          "indexed": true,
          "internalType": "address",
          "name": "arbiter",
          "type": "address"
        },
        {
          "indexed": true,
          "internalType": "uint256",
          "name": "approvedAmount",
          "type": "uint256"
        }
      ],
      "name": "Approved",
      "type": "event"
    },
    {
      "anonymous": false,
      "inputs": [
        {
          "indexed": true,
          "internalType": "address",
          "name": "depositor",
          "type": "address"
        },
        {
          "indexed": true,
          "internalType": "uint256",
          "name": "depositAmount",
          "type": "uint256"
        }
      ],
      "name": "Deposited",
      "type": "event"
    },
    {
      "anonymous": false,
      "inputs": [
        {
          "indexed": true,
          "internalType": "address",
          "name": "arbiter",
          "type": "address"
        },
        {
          "indexed": true,
          "internalType": "uint256",
          "name": "rejectedAmount",
          "type": "uint256"
        }
      ],
      "name": "Rejected",
      "type": "event"
    },
    {
      "anonymous": false,
      "inputs": [
        {
          "indexed": true,
          "internalType": "address",
          "name": "arbiterRemoved",
          "type": "address"
        },
        {
          "indexed": true,
          "internalType": "address",
          "name": "addressThatRemovedArbiter",
          "type": "address"
        }
      ],
      "name": "RemovedArbiter",
      "type": "event"
    },
    {
      "anonymous": false,
      "inputs": [
        {
          "indexed": true,
          "internalType": "address",
          "name": "managerRemoved",
          "type": "address"
        }
      ],
      "name": "RemovedManager",
      "type": "event"
    },
    {
      "anonymous": false,
      "inputs": [
        {
          "indexed": true,
          "internalType": "address",
          "name": "addressMakingTheRequest",
          "type": "address"
        },
        {
          "indexed": true,
          "internalType": "uint256",
          "name": "requestAmount",
          "type": "uint256"
        }
      ],
      "name": "Requested",
      "type": "event"
    },
    {
      "inputs": [
        {
          "internalType": "address",
          "name": "arbiterToAdd",
          "type": "address"
        }
      ],
      "name": "addArbiter",
      "outputs": [],
      "stateMutability": "nonpayable",
      "type": "function"
    },
    {
      "inputs": [
        {
          "internalType": "address",
          "name": "managerToAdd",
          "type": "address"
        }
      ],
      "name": "addManager",
      "outputs": [],
      "stateMutability": "nonpayable",
      "type": "function"
    },
    {
      "inputs": [
        {
          "internalType": "address",
          "name": "",
          "type": "address"
        }
      ],
      "name": "approvals",
      "outputs": [
        {
          "internalType": "uint256",
          "name": "",
          "type": "uint256"
        }
      ],
      "stateMutability": "view",
      "type": "function"
    },
    {
      "inputs": [
        {
          "internalType": "uint256",
          "name": "amount",
          "type": "uint256"
        }
      ],
      "name": "approveRequestAmount",
      "outputs": [],
      "stateMutability": "nonpayable",
      "type": "function"
    },
    {
      "inputs": [
        {
          "internalType": "address",
          "name": "",
          "type": "address"
        }
      ],
      "name": "arbiters",
      "outputs": [
        {
          "internalType": "bool",
          "name": "",
          "type": "bool"
        }
      ],
      "stateMutability": "view",
      "type": "function"
    },
    {
      "inputs": [],
      "name": "beneficiary",
      "outputs": [
        {
          "internalType": "address",
          "name": "",
          "type": "address"
        }
      ],
      "stateMutability": "view",
      "type": "function"
    },
    {
      "inputs": [],
      "name": "deployer",
      "outputs": [
        {
          "internalType": "address",
          "name": "",
          "type": "address"
        }
      ],
      "stateMutability": "view",
      "type": "function"
    },
    {
      "inputs": [],
      "name": "deposit",
      "outputs": [],
      "stateMutability": "payable",
      "type": "function"
    },
    {
      "inputs": [
        {
          "internalType": "address",
          "name": "",
          "type": "address"
        }
      ],
      "name": "deposits",
      "outputs": [
        {
          "internalType": "uint256",
          "name": "",
          "type": "uint256"
        }
      ],
      "stateMutability": "view",
      "type": "function"
    },
    {
      "inputs": [],
      "name": "getContractInfo",
      "outputs": [
        {
          "internalType": "address",
          "name": "",
          "type": "address"
        },
        {
          "internalType": "address",
          "name": "",
          "type": "address"
        },
        {
          "internalType": "uint256",
          "name": "",
          "type": "uint256"
        },
        {
          "internalType": "uint256",
          "name": "",
          "type": "uint256"
        },
        {
          "internalType": "uint256",
          "name": "",
          "type": "uint256"
        }
      ],
      "stateMutability": "view",
      "type": "function"
    },
    {
      "inputs": [
        {
          "internalType": "address",
          "name": "",
          "type": "address"
        }
      ],
      "name": "managers",
      "outputs": [
        {
          "internalType": "bool",
          "name": "",
          "type": "bool"
        }
      ],
      "stateMutability": "view",
      "type": "function"
    },
    {
      "inputs": [],
      "name": "rejectRequestAmount",
      "outputs": [],
      "stateMutability": "nonpayable",
      "type": "function"
    },
    {
      "inputs": [
        {
          "internalType": "address",
          "name": "arbiterToRemove",
          "type": "address"
        }
      ],
      "name": "removeArbiter",
      "outputs": [],
      "stateMutability": "nonpayable",
      "type": "function"
    },
    {
      "inputs": [
        {
          "internalType": "address",
          "name": "managerToRemove",
          "type": "address"
        }
      ],
      "name": "removeManager",
      "outputs": [],
      "stateMutability": "nonpayable",
      "type": "function"
    },
    {
      "inputs": [],
      "name": "requestAmount",
      "outputs": [
        {
          "internalType": "uint256",
          "name": "",
          "type": "uint256"
        }
      ],
      "stateMutability": "view",
      "type": "function"
    },
    {
      "inputs": [
        {
          "internalType": "uint256",
          "name": "amount",
          "type": "uint256"
        }
      ],
      "name": "requestReleaseAmount",
      "outputs": [],
      "stateMutability": "nonpayable",
      "type": "function"
    },
    {
      "inputs": [],
      "name": "totalReleasedAmount",
      "outputs": [
        {
          "internalType": "uint256",
          "name": "",
          "type": "uint256"
        }
      ],
      "stateMutability": "view",
      "type": "function"
    }
  ],
  "bytecode": "0x6080604052604051620022313803806200223183398181016040528101906200002991906200053d565b336000806101000a81548173ffffffffffffffffffffffffffffffffffffffff021916908373ffffffffffffffffffffffffffffffffffffffff16021790555080600160006101000a81548173ffffffffffffffffffffffffffffffffffffffff021916908373ffffffffffffffffffffffffffffffffffffffff16021790555060005b8351811015620001b957600160046000868481518110620000d357620000d2620005d7565b5b602002602001015173ffffffffffffffffffffffffffffffffffffffff1673ffffffffffffffffffffffffffffffffffffffff16815260200190815260200160002060006101000a81548160ff0219169083151502179055503373ffffffffffffffffffffffffffffffffffffffff16848281518110620001595762000158620005d7565b5b602002602001015173ffffffffffffffffffffffffffffffffffffffff167f5da32da6167cd58af09e39e9d6080efddd75a04a4331c363f30db2fdbc509ab060405160405180910390a38080620001b0906200063f565b915050620000ad565b5060005b8251811015620002b257600160056000858481518110620001e357620001e2620005d7565b5b602002602001015173ffffffffffffffffffffffffffffffffffffffff1673ffffffffffffffffffffffffffffffffffffffff16815260200190815260200160002060006101000a81548160ff021916908315150217905550828181518110620002525762000251620005d7565b5b602002602001015173ffffffffffffffffffffffffffffffffffffffff167f019f8e268b1a21bed916c74ef5edbe7159704da5aa08da1d00e923632582472060405160405180910390a28080620002a9906200063f565b915050620001bd565b506000341115620003465734600660003373ffffffffffffffffffffffffffffffffffffffff1673ffffffffffffffffffffffffffffffffffffffff16815260200190815260200160002081905550343373ffffffffffffffffffffffffffffffffffffffff167f2da466a7b24304f47e87fa2e1e5a81b9831ce54fec19055ce277ca2f39ba42c460405160405180910390a35b5050506200068c565b6000604051905090565b600080fd5b600080fd5b600080fd5b6000601f19601f8301169050919050565b7f4e487b7100000000000000000000000000000000000000000000000000000000600052604160045260246000fd5b620003b38262000368565b810181811067ffffffffffffffff82111715620003d557620003d462000379565b5b80604052505050565b6000620003ea6200034f565b9050620003f88282620003a8565b919050565b600067ffffffffffffffff8211156200041b576200041a62000379565b5b602082029050602081019050919050565b600080fd5b600073ffffffffffffffffffffffffffffffffffffffff82169050919050565b60006200045e8262000431565b9050919050565b620004708162000451565b81146200047c57600080fd5b50565b600081519050620004908162000465565b92915050565b6000620004ad620004a784620003fd565b620003de565b90508083825260208201905060208402830185811115620004d357620004d26200042c565b5b835b81811015620005005780620004eb88826200047f565b845260208401935050602081019050620004d5565b5050509392505050565b600082601f83011262000522576200052162000363565b5b81516200053484826020860162000496565b91505092915050565b60008060006060848603121562000559576200055862000359565b5b600084015167ffffffffffffffff8111156200057a57620005796200035e565b5b62000588868287016200050a565b935050602084015167ffffffffffffffff811115620005ac57620005ab6200035e565b5b620005ba868287016200050a565b9250506040620005cd868287016200047f565b9150509250925092565b7f4e487b7100000000000000000000000000000000000000000000000000000000600052603260045260246000fd5b7f4e487b7100000000000000000000000000000000000000000000000000000000600052601160045260246000fd5b6000819050919050565b60006200064c8262000635565b91507fffffffffffffffffffffffffffffffffffffffffffffffffffffffffffffffff820362000681576200068062000606565b5b600182019050919050565b611b95806200069c6000396000f3fe6080604052600436106100fe5760003560e01c80637cc1f86711610095578063d0e30db011610064578063d0e30db01461030f578063d5f3948814610319578063f52ec46c14610344578063fc7e286d1461036f578063fdff9b4d146103ac576100fe565b80637cc1f8671461026357806383273cd114610292578063ac18de43146102bd578063b538d3bc146102e6576100fe565b80635d0341ba116100d15780635d0341ba146101a9578063680e5481146101e65780637551c6a41461020f5780637bf2bb1014610226576100fe565b8063025be784146101035780632d06177a1461012c5780633487e08c1461015557806338af3eed1461017e575b600080fd5b34801561010f57600080fd5b5061012a60048036038101906101259190611314565b6103e9565b005b34801561013857600080fd5b50610153600480360381019061014e919061139f565b6104d9565b005b34801561016157600080fd5b5061017c6004803603810190610177919061139f565b610692565b005b34801561018a57600080fd5b506101936108b5565b6040516101a091906113db565b60405180910390f35b3480156101b557600080fd5b506101d060048036038101906101cb919061139f565b6108db565b6040516101dd9190611405565b60405180910390f35b3480156101f257600080fd5b5061020d60048036038101906102089190611314565b6108f3565b005b34801561021b57600080fd5b50610224610ba7565b005b34801561023257600080fd5b5061024d6004803603810190610248919061139f565b610d2d565b60405161025a919061143b565b60405180910390f35b34801561026f57600080fd5b50610278610d4d565b604051610289959493929190611456565b60405180910390f35b34801561029e57600080fd5b506102a7610db6565b6040516102b49190611405565b60405180910390f35b3480156102c957600080fd5b506102e460048036038101906102df919061139f565b610dbc565b005b3480156102f257600080fd5b5061030d6004803603810190610308919061139f565b610f74565b005b610317611198565b005b34801561032557600080fd5b5061032e611277565b60405161033b91906113db565b60405180910390f35b34801561035057600080fd5b5061035961129b565b6040516103669190611405565b60405180910390f35b34801561037b57600080fd5b506103966004803603810190610391919061139f565b6112a1565b6040516103a39190611405565b60405180910390f35b3480156103b857600080fd5b506103d360048036038101906103ce919061139f565b6112b9565b6040516103e0919061143b565b60405180910390f35b600160009054906101000a900473ffffffffffffffffffffffffffffffffffffffff1673ffffffffffffffffffffffffffffffffffffffff163373ffffffffffffffffffffffffffffffffffffffff1614610479576040517f08c379a000000000000000000000000000000000000000000000000000000000815260040161047090611506565b60405180910390fd5b806002600082825461048b9190611555565b92505081905550803373ffffffffffffffffffffffffffffffffffffffff167f189155e729161d41c9756b8f023ae2bcb16166eb447c05edd79b57f5c29f19e360405160405180910390a350565b60008054906101000a900473ffffffffffffffffffffffffffffffffffffffff1673ffffffffffffffffffffffffffffffffffffffff163373ffffffffffffffffffffffffffffffffffffffff1614610567576040517f08c379a000000000000000000000000000000000000000000000000000000000815260040161055e906115d5565b60405180910390fd5b600560008273ffffffffffffffffffffffffffffffffffffffff1673ffffffffffffffffffffffffffffffffffffffff16815260200190815260200160002060009054906101000a900460ff16156105f4576040517f08c379a00000000000000000000000000000000000000000000000000000000081526004016105eb90611641565b60405180910390fd5b6001600560008373ffffffffffffffffffffffffffffffffffffffff1673ffffffffffffffffffffffffffffffffffffffff16815260200190815260200160002060006101000a81548160ff0219169083151502179055508073ffffffffffffffffffffffffffffffffffffffff167f019f8e268b1a21bed916c74ef5edbe7159704da5aa08da1d00e923632582472060405160405180910390a250565b60008054906101000a900473ffffffffffffffffffffffffffffffffffffffff1673ffffffffffffffffffffffffffffffffffffffff163373ffffffffffffffffffffffffffffffffffffffff1614806107355750600560003373ffffffffffffffffffffffffffffffffffffffff1673ffffffffffffffffffffffffffffffffffffffff16815260200190815260200160002060009054906101000a900460ff165b610774576040517f08c379a000000000000000000000000000000000000000000000000000000000815260040161076b906116d3565b60405180910390fd5b600460008273ffffffffffffffffffffffffffffffffffffffff1673ffffffffffffffffffffffffffffffffffffffff16815260200190815260200160002060009054906101000a900460ff16610800576040517f08c379a00000000000000000000000000000000000000000000000000000000081526004016107f79061173f565b60405180910390fd5b6000600460008373ffffffffffffffffffffffffffffffffffffffff1673ffffffffffffffffffffffffffffffffffffffff16815260200190815260200160002060006101000a81548160ff0219169083151502179055503373ffffffffffffffffffffffffffffffffffffffff168173ffffffffffffffffffffffffffffffffffffffff167fde2bb03d1b0584145c9aa1a6bad4f8118e3fed1aea3549892bbd29d1170adaca60405160405180910390a350565b600160009054906101000a900473ffffffffffffffffffffffffffffffffffffffff1681565b60076020528060005260406000206000915090505481565b600460003373ffffffffffffffffffffffffffffffffffffffff1673ffffffffffffffffffffffffffffffffffffffff16815260200190815260200160002060009054906101000a900460ff1661097f576040517f08c379a0000000000000000000000000000000000000000000000000000000008152600401610976906117ab565b60405180910390fd5b478111156109c2576040517f08c379a00000000000000000000000000000000000000000000000000000000081526004016109b990611817565b60405180910390fd5b600060025411610a07576040517f08c379a00000000000000000000000000000000000000000000000000000000081526004016109fe90611883565b60405180910390fd5b6000600160009054906101000a900473ffffffffffffffffffffffffffffffffffffffff1673ffffffffffffffffffffffffffffffffffffffff1682604051610a4f906118d4565b60006040518083038185875af1925050503d8060008114610a8c576040519150601f19603f3d011682016040523d82523d6000602084013e610a91565b606091505b5050905080610ad5576040517f08c379a0000000000000000000000000000000000000000000000000000000008152600401610acc90611935565b60405180910390fd5b8160036000828254610ae79190611555565b9250508190555081600760003373ffffffffffffffffffffffffffffffffffffffff1673ffffffffffffffffffffffffffffffffffffffff1681526020019081526020016000206000828254610b3d9190611555565b925050819055506002543373ffffffffffffffffffffffffffffffffffffffff167ff13bfe0b6ec5df39265dccb0a01a09aa4162489c7a083dc6670bde0255d02ca760405160405180910390a38160026000828254610b9c9190611955565b925050819055505050565b60008054906101000a900473ffffffffffffffffffffffffffffffffffffffff1673ffffffffffffffffffffffffffffffffffffffff163373ffffffffffffffffffffffffffffffffffffffff161480610c4a5750600460003373ffffffffffffffffffffffffffffffffffffffff1673ffffffffffffffffffffffffffffffffffffffff16815260200190815260200160002060009054906101000a900460ff165b80610c9e5750600560003373ffffffffffffffffffffffffffffffffffffffff1673ffffffffffffffffffffffffffffffffffffffff16815260200190815260200160002060009054906101000a900460ff165b610cdd576040517f08c379a0000000000000000000000000000000000000000000000000000000008152600401610cd4906119fb565b60405180910390fd5b6002543373ffffffffffffffffffffffffffffffffffffffff167fd1b7634754abb5b1c8114d54e3847f71a56f8e64676e51befd276ab5c4fd95c560405160405180910390a36000600281905550565b60046020528060005260406000206000915054906101000a900460ff1681565b60008060008060008047905060008054906101000a900473ffffffffffffffffffffffffffffffffffffffff16600160009054906101000a900473ffffffffffffffffffffffffffffffffffffffff166002546003548495509550955095509550509091929394565b60035481565b60008054906101000a900473ffffffffffffffffffffffffffffffffffffffff1673ffffffffffffffffffffffffffffffffffffffff163373ffffffffffffffffffffffffffffffffffffffff1614610e4a576040517f08c379a0000000000000000000000000000000000000000000000000000000008152600401610e41906115d5565b60405180910390fd5b600560008273ffffffffffffffffffffffffffffffffffffffff1673ffffffffffffffffffffffffffffffffffffffff16815260200190815260200160002060009054906101000a900460ff16610ed6576040517f08c379a0000000000000000000000000000000000000000000000000000000008152600401610ecd90611a67565b60405180910390fd5b6000600560008373ffffffffffffffffffffffffffffffffffffffff1673ffffffffffffffffffffffffffffffffffffffff16815260200190815260200160002060006101000a81548160ff0219169083151502179055508073ffffffffffffffffffffffffffffffffffffffff167f0153940c4f400a39a1ca7f4cd7e46be4b7d3793f6142184e505b8c4e1a81037860405160405180910390a250565b60008054906101000a900473ffffffffffffffffffffffffffffffffffffffff1673ffffffffffffffffffffffffffffffffffffffff163373ffffffffffffffffffffffffffffffffffffffff1614806110175750600560003373ffffffffffffffffffffffffffffffffffffffff1673ffffffffffffffffffffffffffffffffffffffff16815260200190815260200160002060009054906101000a900460ff165b611056576040517f08c379a000000000000000000000000000000000000000000000000000000000815260040161104d906116d3565b60405180910390fd5b600460008273ffffffffffffffffffffffffffffffffffffffff1673ffffffffffffffffffffffffffffffffffffffff16815260200190815260200160002060009054906101000a900460ff16156110e3576040517f08c379a00000000000000000000000000000000000000000000000000000000081526004016110da90611ad3565b60405180910390fd5b6001600460008373ffffffffffffffffffffffffffffffffffffffff1673ffffffffffffffffffffffffffffffffffffffff16815260200190815260200160002060006101000a81548160ff0219169083151502179055503373ffffffffffffffffffffffffffffffffffffffff168173ffffffffffffffffffffffffffffffffffffffff167f5da32da6167cd58af09e39e9d6080efddd75a04a4331c363f30db2fdbc509ab060405160405180910390a350565b600034116111db576040517f08c379a00000000000000000000000000000000000000000000000000000000081526004016111d290611b3f565b60405180910390fd5b34600660003373ffffffffffffffffffffffffffffffffffffffff1673ffffffffffffffffffffffffffffffffffffffff168152602001908152602001600020600082825461122a9190611555565b92505081905550343373ffffffffffffffffffffffffffffffffffffffff167f2da466a7b24304f47e87fa2e1e5a81b9831ce54fec19055ce277ca2f39ba42c460405160405180910390a3565b60008054906101000a900473ffffffffffffffffffffffffffffffffffffffff1681565b60025481565b60066020528060005260406000206000915090505481565b60056020528060005260406000206000915054906101000a900460ff1681565b600080fd5b6000819050919050565b6112f1816112de565b81146112fc57600080fd5b50565b60008135905061130e816112e8565b92915050565b60006020828403121561132a576113296112d9565b5b6000611338848285016112ff565b91505092915050565b600073ffffffffffffffffffffffffffffffffffffffff82169050919050565b600061136c82611341565b9050919050565b61137c81611361565b811461138757600080fd5b50565b60008135905061139981611373565b92915050565b6000602082840312156113b5576113b46112d9565b5b60006113c38482850161138a565b91505092915050565b6113d581611361565b82525050565b60006020820190506113f060008301846113cc565b92915050565b6113ff816112de565b82525050565b600060208201905061141a60008301846113f6565b92915050565b60008115159050919050565b61143581611420565b82525050565b6000602082019050611450600083018461142c565b92915050565b600060a08201905061146b60008301886113cc565b61147860208301876113cc565b61148560408301866113f6565b61149260608301856113f6565b61149f60808301846113f6565b9695505050505050565b600082825260208201905092915050565b7f43616c6c6572206d7573742062652062656e6566696369617279000000000000600082015250565b60006114f0601a836114a9565b91506114fb826114ba565b602082019050919050565b6000602082019050818103600083015261151f816114e3565b9050919050565b7f4e487b7100000000000000000000000000000000000000000000000000000000600052601160045260246000fd5b6000611560826112de565b915061156b836112de565b925082820190508082111561158357611582611526565b5b92915050565b7f43616c6c6572206e6f74206465706c6f79657200000000000000000000000000600082015250565b60006115bf6013836114a9565b91506115ca82611589565b602082019050919050565b600060208201905081810360008301526115ee816115b2565b9050919050565b7f416c7265616479206d616e616765722e00000000000000000000000000000000600082015250565b600061162b6010836114a9565b9150611636826115f5565b602082019050919050565b6000602082019050818103600083015261165a8161161e565b9050919050565b7f43616c6c6572206d757374206265204465706c6f796572206f72206d616e616760008201527f6572000000000000000000000000000000000000000000000000000000000000602082015250565b60006116bd6022836114a9565b91506116c882611661565b604082019050919050565b600060208201905081810360008301526116ec816116b0565b9050919050565b7f5468652061646472657373206973206e6f7420616e2061726269746572000000600082015250565b6000611729601d836114a9565b9150611734826116f3565b602082019050919050565b600060208201905081810360008301526117588161171c565b9050919050565b7f43616c6c6572206e6f7420617262697465720000000000000000000000000000600082015250565b60006117956012836114a9565b91506117a08261175f565b602082019050919050565b600060208201905081810360008301526117c481611788565b9050919050565b7f4554482042616c616e636520746f206c6f770000000000000000000000000000600082015250565b60006118016012836114a9565b915061180c826117cb565b602082019050919050565b60006020820190508181036000830152611830816117f4565b9050919050565b7f4e6f20616d6f756e74206f662045544820726571756573746564000000000000600082015250565b600061186d601a836114a9565b915061187882611837565b602082019050919050565b6000602082019050818103600083015261189c81611860565b9050919050565b600081905092915050565b50565b60006118be6000836118a3565b91506118c9826118ae565b600082019050919050565b60006118df826118b1565b9150819050919050565b7f4661696c656420746f2073656e64204554480000000000000000000000000000600082015250565b600061191f6012836114a9565b915061192a826118e9565b602082019050919050565b6000602082019050818103600083015261194e81611912565b9050919050565b6000611960826112de565b915061196b836112de565b925082820390508181111561198357611982611526565b5b92915050565b7f43616c6c6572206d757374206265204465706c6f7965722c206d616e6167657260008201527f206f722061726269746572000000000000000000000000000000000000000000602082015250565b60006119e5602b836114a9565b91506119f082611989565b604082019050919050565b60006020820190508181036000830152611a14816119d8565b9050919050565b7f5468652061646472657373206973206e6f7420616e206d616e61676572000000600082015250565b6000611a51601d836114a9565b9150611a5c82611a1b565b602082019050919050565b60006020820190508181036000830152611a8081611a44565b9050919050565b7f416c726561647920617262697465720000000000000000000000000000000000600082015250565b6000611abd600f836114a9565b9150611ac882611a87565b602082019050919050565b60006020820190508181036000830152611aec81611ab0565b9050919050565b7f596f75206d757374206465706f73697420736f6d204574680000000000000000600082015250565b6000611b296018836114a9565b9150611b3482611af3565b602082019050919050565b60006020820190508181036000830152611b5881611b1c565b905091905056fea2646970667358221220e93137aebb94e5c4bf6234696555fc7f0ea33594c91272f6a46f454848a402ce64736f6c63430008110033",
  "linkReferences": {},
  "deployedLinkReferences": {}
}