{
  "_format": "hh-sol-artifact-1",
  "contractName": "Escrow",
  "sourceName": "contracts/Escrow.sol",
  "abi": [
    {
      "inputs": [
        {
          "internalType": "address",
          "name": "_arbiter",
          "type": "address"
        },
        {
          "internalType": "address",
          "name": "_beneficiary",
          "type": "address"
        }
      ],
      "stateMutability": "payable",
      "type": "constructor"
    },
    {
      "anonymous": false,
      "inputs": [
        {
          "indexed": true,
          "internalType": "address",
          "name": "arbiter",
          "type": "address"
        },
        {
          "indexed": true,
          "internalType": "uint256",
          "name": "value",
          "type": "uint256"
        }
      ],
      "name": "Approved",
      "type": "event"
    },
    {
      "anonymous": false,
      "inputs": [
        {
          "indexed": true,
          "internalType": "address",
          "name": "depositor",
          "type": "address"
        },
        {
          "indexed": true,
          "internalType": "uint256",
          "name": "value",
          "type": "uint256"
        }
      ],
      "name": "Deposited",
      "type": "event"
    },
    {
      "inputs": [],
      "name": "approve",
      "outputs": [],
      "stateMutability": "nonpayable",
      "type": "function"
    },
    {
      "inputs": [],
      "name": "arbiter",
      "outputs": [
        {
          "internalType": "address",
          "name": "",
          "type": "address"
        }
      ],
      "stateMutability": "view",
      "type": "function"
    },
    {
      "inputs": [],
      "name": "beneficiary",
      "outputs": [
        {
          "internalType": "address",
          "name": "",
          "type": "address"
        }
      ],
      "stateMutability": "view",
      "type": "function"
    },
    {
      "inputs": [],
      "name": "deployer",
      "outputs": [
        {
          "internalType": "address",
          "name": "",
          "type": "address"
        }
      ],
      "stateMutability": "view",
      "type": "function"
    },
    {
      "inputs": [],
      "name": "deposit",
      "outputs": [],
      "stateMutability": "payable",
      "type": "function"
    },
    {
      "inputs": [],
      "name": "isApproved",
      "outputs": [
        {
          "internalType": "bool",
          "name": "",
          "type": "bool"
        }
      ],
      "stateMutability": "view",
      "type": "function"
    },
    {
      "inputs": [],
      "name": "releasedAmount",
      "outputs": [
        {
          "internalType": "uint256",
          "name": "",
          "type": "uint256"
        }
      ],
      "stateMutability": "view",
      "type": "function"
    },
    {
      "stateMutability": "payable",
      "type": "receive"
    }
  ],
  "bytecode": "0x6080604052604051610ac8380380610ac88339818101604052810190610025919061016c565b336000806101000a81548173ffffffffffffffffffffffffffffffffffffffff021916908373ffffffffffffffffffffffffffffffffffffffff16021790555081600160006101000a81548173ffffffffffffffffffffffffffffffffffffffff021916908373ffffffffffffffffffffffffffffffffffffffff16021790555080600260006101000a81548173ffffffffffffffffffffffffffffffffffffffff021916908373ffffffffffffffffffffffffffffffffffffffff1602179055506000600260146101000a81548160ff02191690831515021790555050506101ac565b600080fd5b600073ffffffffffffffffffffffffffffffffffffffff82169050919050565b60006101398261010e565b9050919050565b6101498161012e565b811461015457600080fd5b50565b60008151905061016681610140565b92915050565b6000806040838503121561018357610182610109565b5b600061019185828601610157565b92505060206101a285828601610157565b9150509250929050565b61090d806101bb6000396000f3fe6080604052600436106100745760003560e01c806345d30a171161004e57806345d30a17146100ed578063d0e30db014610118578063d5f3948814610122578063fe25e00a1461014d5761007b565b806312424e3f1461008057806328f371aa1461009757806338af3eed146100c25761007b565b3661007b57005b600080fd5b34801561008c57600080fd5b50610095610178565b005b3480156100a357600080fd5b506100ac610341565b6040516100b9919061056d565b60405180910390f35b3480156100ce57600080fd5b506100d7610354565b6040516100e491906105c9565b60405180910390f35b3480156100f957600080fd5b5061010261037a565b60405161010f91906105fd565b60405180910390f35b610120610380565b005b34801561012e57600080fd5b50610137610508565b60405161014491906105c9565b60405180910390f35b34801561015957600080fd5b5061016261052c565b60405161016f91906105c9565b60405180910390f35b600160009054906101000a900473ffffffffffffffffffffffffffffffffffffffff1673ffffffffffffffffffffffffffffffffffffffff163373ffffffffffffffffffffffffffffffffffffffff1614610208576040517f08c379a00000000000000000000000000000000000000000000000000000000081526004016101ff9061069b565b60405180910390fd5b476003819055506000600260009054906101000a900473ffffffffffffffffffffffffffffffffffffffff1673ffffffffffffffffffffffffffffffffffffffff1647604051610257906106ec565b60006040518083038185875af1925050503d8060008114610294576040519150601f19603f3d011682016040523d82523d6000602084013e610299565b606091505b50509050806102dd576040517f08c379a00000000000000000000000000000000000000000000000000000000081526004016102d49061074d565b60405180910390fd5b6001600260146101000a81548160ff0219169083151502179055506003543373ffffffffffffffffffffffffffffffffffffffff167ff13bfe0b6ec5df39265dccb0a01a09aa4162489c7a083dc6670bde0255d02ca760405160405180910390a350565b600260149054906101000a900460ff1681565b600260009054906101000a900473ffffffffffffffffffffffffffffffffffffffff1681565b60035481565b60008054906101000a900473ffffffffffffffffffffffffffffffffffffffff1673ffffffffffffffffffffffffffffffffffffffff163373ffffffffffffffffffffffffffffffffffffffff161461040e576040517f08c379a0000000000000000000000000000000000000000000000000000000008152600401610405906107df565b60405180910390fd5b60011515600260149054906101000a900460ff16151514610464576040517f08c379a000000000000000000000000000000000000000000000000000000000815260040161045b9061084b565b60405180910390fd5b600034116104a7576040517f08c379a000000000000000000000000000000000000000000000000000000000815260040161049e906108b7565b60405180910390fd5b6000600260146101000a81548160ff021916908315150217905550343373ffffffffffffffffffffffffffffffffffffffff167f2da466a7b24304f47e87fa2e1e5a81b9831ce54fec19055ce277ca2f39ba42c460405160405180910390a3565b60008054906101000a900473ffffffffffffffffffffffffffffffffffffffff1681565b600160009054906101000a900473ffffffffffffffffffffffffffffffffffffffff1681565b60008115159050919050565b61056781610552565b82525050565b6000602082019050610582600083018461055e565b92915050565b600073ffffffffffffffffffffffffffffffffffffffff82169050919050565b60006105b382610588565b9050919050565b6105c3816105a8565b82525050565b60006020820190506105de60008301846105ba565b92915050565b6000819050919050565b6105f7816105e4565b82525050565b600060208201905061061260008301846105ee565b92915050565b600082825260208201905092915050565b7f4f6e6c7920746865206172697465722063616e20706572666f726d207468697360008201527f20616374696f6e00000000000000000000000000000000000000000000000000602082015250565b6000610685602783610618565b915061069082610629565b604082019050919050565b600060208201905081810360008301526106b481610678565b9050919050565b600081905092915050565b50565b60006106d66000836106bb565b91506106e1826106c6565b600082019050919050565b60006106f7826106c9565b9150819050919050565b7f4661696c656420746f2073656e64204574686572000000000000000000000000600082015250565b6000610737601483610618565b915061074282610701565b602082019050919050565b600060208201905081810360008301526107668161072a565b9050919050565b7f4f6e6c7920746865206465706c6f7965722063616e20706572666f726d20746860008201527f697320616374696f6e0000000000000000000000000000000000000000000000602082015250565b60006107c9602983610618565b91506107d48261076d565b604082019050919050565b600060208201905081810360008301526107f8816107bc565b9050919050565b7f436f6e7472616374206e6f74206f70656e20666f72206465706f736974730000600082015250565b6000610835601e83610618565b9150610840826107ff565b602082019050919050565b6000602082019050818103600083015261086481610828565b9050919050565b7f596f75206d757374206465706f73697420736f6d652045544800000000000000600082015250565b60006108a1601983610618565b91506108ac8261086b565b602082019050919050565b600060208201905081810360008301526108d081610894565b905091905056fea264697066735822122012f9620d47945660cef72ec0ec32178319eece1e8f954bae1bbc5cded498c78e64736f6c63430008110033",
  "linkReferences": {},
  "deployedLinkReferences": {}
}